{
  "address": "0xB1D1F00B6Cd1e148410B50F319BcbFa65ea367b6",
  "abi": [
    {
      "inputs": [
        {
          "internalType": "bool",
          "name": "initValue",
          "type": "bool"
        }
      ],
      "stateMutability": "nonpayable",
      "type": "constructor"
    },
    {
      "inputs": [],
      "name": "flip",
      "outputs": [],
      "stateMutability": "nonpayable",
      "type": "function"
    },
    {
      "inputs": [],
      "name": "value",
      "outputs": [
        {
          "internalType": "bool",
          "name": "",
          "type": "bool"
        }
      ],
      "stateMutability": "view",
      "type": "function"
    }
  ],
  "transactionHash": "0x2bde96073edd52ca6dc7d0b6566403b9bfe62b50642d0bb621644a54865a9aef",
  "args": [
    false
  ],
  "numDeployments": 1,
  "solcInputHash": "2b836890e0621644ac5bfc918daf87eb",
  "bytecode": "0x608060405234801561001057600080fd5b506040516101c43803806101c48339818101604052810190610032919061008e565b806000806101000a81548160ff021916908315150217905550506100bb565b600080fd5b60008115159050919050565b61006b81610056565b811461007657600080fd5b50565b60008151905061008881610062565b92915050565b6000602082840312156100a4576100a3610051565b5b60006100b284828501610079565b91505092915050565b60fb806100c96000396000f3fe6080604052348015600f57600080fd5b506004361060325760003560e01c80633fa4f245146037578063cde4efa9146051575b600080fd5b603d6059565b6040516048919060ac565b60405180910390f35b6057606a565b005b60008054906101000a900460ff1681565b60008054906101000a900460ff16156000806101000a81548160ff021916908315150217905550565b60008115159050919050565b60a6816093565b82525050565b600060208201905060bf6000830184609f565b9291505056fea2646970667358221220c50bccc725c14fb50e014473aa8b298b5078c56bc52de74607f31f0d37be848764736f6c63430008130033",
  "devdoc": {
    "kind": "dev",
    "methods": {},
    "version": 1
  },
  "userdoc": {
    "kind": "user",
    "methods": {},
    "version": 1
  },
  "storageLayout": {
    "storage": [
      {
        "astId": 3,
        "contract": "contracts/Flipper.sol:Flipper",
        "label": "value",
        "offset": 0,
        "slot": "0",
        "type": "t_bool"
      }
    ],
    "types": {
      "t_bool": {
        "encoding": "inplace",
        "label": "bool",
        "numberOfBytes": "1"
      }
    }
  }
}